{
  "_format": "hh-sol-artifact-1",
  "contractName": "LoansNFT",
  "sourceName": "contracts/LoansNFT.sol",
  "abi": [
    {
      "inputs": [],
      "stateMutability": "nonpayable",
      "type": "constructor"
    },
    {
      "anonymous": false,
      "inputs": [],
      "name": "LoansUpdated",
      "type": "event"
    },
    {
      "anonymous": false,
      "inputs": [
        {
          "indexed": false,
          "internalType": "address",
          "name": "account",
          "type": "address"
        }
      ],
      "name": "Paused",
      "type": "event"
    },
    {
      "anonymous": false,
      "inputs": [
        {
          "indexed": false,
          "internalType": "address",
          "name": "account",
          "type": "address"
        }
      ],
      "name": "Unpaused",
      "type": "event"
    },
    {
      "inputs": [],
      "name": "CFY_VAULT",
      "outputs": [
        {
          "internalType": "address payable",
          "name": "",
          "type": "address"
        }
      ],
      "stateMutability": "view",
      "type": "function"
    },
    {
      "inputs": [
        {
          "internalType": "uint256",
          "name": "loanID",
          "type": "uint256"
        }
      ],
      "name": "acceptLoanRequest",
      "outputs": [],
      "stateMutability": "payable",
      "type": "function"
    },
    {
      "inputs": [
        {
          "internalType": "uint256",
          "name": "",
          "type": "uint256"
        }
      ],
      "name": "allLoanRequests",
      "outputs": [
        {
          "internalType": "uint256",
          "name": "loanID",
          "type": "uint256"
        },
        {
          "internalType": "address payable",
          "name": "lender",
          "type": "address"
        },
        {
          "internalType": "address payable",
          "name": "borrower",
          "type": "address"
        },
        {
          "internalType": "address",
          "name": "smartContractAddressOfNFT",
          "type": "address"
        },
        {
          "internalType": "uint256",
          "name": "tokenIdNFT",
          "type": "uint256"
        },
        {
          "internalType": "uint256",
          "name": "loanAmount",
          "type": "uint256"
        },
        {
          "internalType": "uint256",
          "name": "interestAmount",
          "type": "uint256"
        },
        {
          "internalType": "uint256",
          "name": "singlePeriodTime",
          "type": "uint256"
        },
        {
          "internalType": "uint256",
          "name": "maximumInterestPeriods",
          "type": "uint256"
        },
        {
          "internalType": "uint256",
          "name": "endLoanTimeStamp",
          "type": "uint256"
        },
        {
          "internalType": "enum LoansNFT.Status",
          "name": "status",
          "type": "uint8"
        }
      ],
      "stateMutability": "view",
      "type": "function"
    },
    {
      "inputs": [
        {
          "internalType": "uint256",
          "name": "loanID",
          "type": "uint256"
        }
      ],
      "name": "cancelLoanRequest",
      "outputs": [],
      "stateMutability": "nonpayable",
      "type": "function"
    },
    {
      "inputs": [
        {
          "internalType": "address",
          "name": "smartContractAddressOfNFT",
          "type": "address"
        },
        {
          "internalType": "uint256",
          "name": "tokenIdNFT",
          "type": "uint256"
        },
        {
          "internalType": "uint256",
          "name": "loanAmount",
          "type": "uint256"
        },
        {
          "internalType": "uint256",
          "name": "interestAmount",
          "type": "uint256"
        },
        {
          "internalType": "uint256",
          "name": "singlePeriodTime",
          "type": "uint256"
        },
        {
          "internalType": "uint256",
          "name": "maximumInterestPeriods",
          "type": "uint256"
        }
      ],
      "name": "createLoanRequest",
      "outputs": [],
      "stateMutability": "nonpayable",
      "type": "function"
    },
    {
      "inputs": [
        {
          "internalType": "uint256",
          "name": "loanID",
          "type": "uint256"
        }
      ],
      "name": "endLoanRequest",
      "outputs": [],
      "stateMutability": "payable",
      "type": "function"
    },
    {
      "inputs": [
        {
          "internalType": "uint256",
          "name": "loanID",
          "type": "uint256"
        }
      ],
      "name": "extendLoanRequest",
      "outputs": [],
      "stateMutability": "payable",
      "type": "function"
    },
    {
      "inputs": [],
      "name": "manager",
      "outputs": [
        {
          "internalType": "address",
          "name": "",
          "type": "address"
        }
      ],
      "stateMutability": "view",
      "type": "function"
    },
    {
      "inputs": [
        {
          "internalType": "address",
          "name": "operator",
          "type": "address"
        },
        {
          "internalType": "address",
          "name": "from",
          "type": "address"
        },
        {
          "internalType": "uint256",
          "name": "tokenId",
          "type": "uint256"
        },
        {
          "internalType": "bytes",
          "name": "data",
          "type": "bytes"
        }
      ],
      "name": "onERC721Received",
      "outputs": [
        {
          "internalType": "bytes4",
          "name": "",
          "type": "bytes4"
        }
      ],
      "stateMutability": "nonpayable",
      "type": "function"
    },
    {
      "inputs": [],
      "name": "pauseLoans",
      "outputs": [],
      "stateMutability": "nonpayable",
      "type": "function"
    },
    {
      "inputs": [],
      "name": "paused",
      "outputs": [
        {
          "internalType": "bool",
          "name": "",
          "type": "bool"
        }
      ],
      "stateMutability": "view",
      "type": "function"
    },
    {
      "inputs": [],
      "name": "totalLoanRequests",
      "outputs": [
        {
          "internalType": "uint256",
          "name": "",
          "type": "uint256"
        }
      ],
      "stateMutability": "view",
      "type": "function"
    },
    {
      "inputs": [],
      "name": "unPauseLoans",
      "outputs": [],
      "stateMutability": "nonpayable",
      "type": "function"
    }
  ],
  "bytecode": "0x608060405234801561001057600080fd5b5060008060006101000a81548160ff02191690831515021790555033600060016101000a81548173ffffffffffffffffffffffffffffffffffffffff021916908373ffffffffffffffffffffffffffffffffffffffff1602179055506000600181905550612663806100836000396000f3fe6080604052600436106100c25760003560e01c80635c975abb1161007f578063765d949111610059578063765d9491146104b7578063908ef646146104e2578063c16f547e146104f9578063f9e7d3d114610527576100c2565b80635c975abb1461037a578063634609c2146103a75780637331978f14610489576100c2565b80630118a77a146100c7578063012751c9146100f5578063150b7a021461017857806341074eaf146102bd578063481c6a75146102fe5780635a6803671461033f575b600080fd5b6100f3600480360360208110156100dd57600080fd5b810190808035906020019092919050505061053e565b005b34801561010157600080fd5b50610176600480360360c081101561011857600080fd5b81019080803573ffffffffffffffffffffffffffffffffffffffff16906020019092919080359060200190929190803590602001909291908035906020019092919080359060200190929190803590602001909291905050506109bf565b005b34801561018457600080fd5b506102886004803603608081101561019b57600080fd5b81019080803573ffffffffffffffffffffffffffffffffffffffff169060200190929190803573ffffffffffffffffffffffffffffffffffffffff169060200190929190803590602001909291908035906020019064010000000081111561020257600080fd5b82018360208201111561021457600080fd5b8035906020019184600183028401116401000000008311171561023657600080fd5b91908080601f016020809104026020016040519081016040528093929190818152602001838380828437600081840152601f19601f820116905080830192505050505050509192919290505050610f06565b60405180827bffffffffffffffffffffffffffffffffffffffffffffffffffffffff1916815260200191505060405180910390f35b3480156102c957600080fd5b506102d2610f1a565b604051808273ffffffffffffffffffffffffffffffffffffffff16815260200191505060405180910390f35b34801561030a57600080fd5b50610313610f32565b604051808273ffffffffffffffffffffffffffffffffffffffff16815260200191505060405180910390f35b34801561034b57600080fd5b506103786004803603602081101561036257600080fd5b8101908080359060200190929190505050610f58565b005b34801561038657600080fd5b5061038f6112cf565b60405180821515815260200191505060405180910390f35b3480156103b357600080fd5b506103e0600480360360208110156103ca57600080fd5b81019080803590602001909291905050506112e5565b604051808c81526020018b73ffffffffffffffffffffffffffffffffffffffff1681526020018a73ffffffffffffffffffffffffffffffffffffffff1681526020018973ffffffffffffffffffffffffffffffffffffffff16815260200188815260200187815260200186815260200185815260200184815260200183815260200182600481111561046e57fe5b81526020019b50505050505050505050505060405180910390f35b6104b56004803603602081101561049f57600080fd5b81019080803590602001909291905050506113ac565b005b3480156104c357600080fd5b506104cc6119c5565b6040518082815260200191505060405180910390f35b3480156104ee57600080fd5b506104f76119cb565b005b6105256004803603602081101561050f57600080fd5b8101908080359060200190929190505050611a7b565b005b34801561053357600080fd5b5061053c611f97565b005b8060015481106105b6576040517f08c379a00000000000000000000000000000000000000000000000000000000081526004018080602001828103825260138152602001807f4c6f616e20494420697320696e76616c69642e0000000000000000000000000081525060200191505060405180910390fd5b6105be6112cf565b15610631576040517f08c379a00000000000000000000000000000000000000000000000000000000081526004018080602001828103825260108152602001807f5061757361626c653a207061757365640000000000000000000000000000000081525060200191505060405180910390fd5b6001600481111561063e57fe5b60026000848152602001908152602001600020600a0160009054906101000a900460ff16600481111561066d57fe5b146106e0576040517f08c379a000000000000000000000000000000000000000000000000000000000815260040180806020018281038252601d8152602001807f537461747573206973206e6f742041435449564520666f72206c6f616e00000081525060200191505060405180910390fd5b3373ffffffffffffffffffffffffffffffffffffffff166002600084815260200190815260200160002060020160009054906101000a900473ffffffffffffffffffffffffffffffffffffffff1673ffffffffffffffffffffffffffffffffffffffff161461079a576040517f08c379a00000000000000000000000000000000000000000000000000000000081526004018080602001828103825260298152602001806123df6029913960400191505060405180910390fd5b6000600260008481526020019081526020016000206008015411610809576040517f08c379a000000000000000000000000000000000000000000000000000000000815260040180806020018281038252603e8152602001806124e3603e913960400191505060405180910390fd5b6002600083815260200190815260200160002060060154341015610878576040517f08c379a00000000000000000000000000000000000000000000000000000000081526004018080602001828103825260358152602001806125216035913960400191505060405180910390fd5b600160026000848152602001908152602001600020600801540360026000848152602001908152602001600020600801819055506108e260026000848152602001908152602001600020600901546002600085815260200190815260200160002060070154612047565b60026000848152602001908152602001600020600901819055506002600083815260200190815260200160002060010160009054906101000a900473ffffffffffffffffffffffffffffffffffffffff1673ffffffffffffffffffffffffffffffffffffffff166108fc60026000858152602001908152602001600020600601549081150290604051600060405180830381858888f1935050505015801561098e573d6000803e3d6000fd5b507f01163e919b1fd75968a143d56990c801b68ce928c77db2aaa2ee00c1561b376860405160405180910390a15050565b6109c76112cf565b15610a3a576040517f08c379a00000000000000000000000000000000000000000000000000000000081526004018080602001828103825260108152602001807f5061757361626c653a207061757365640000000000000000000000000000000081525060200191505060405180910390fd5b6228de80821115610a96576040517f08c379a00000000000000000000000000000000000000000000000000000000081526004018080602001828103825260308152602001806125dd6030913960400191505060405180910390fd5b836002028310610af1576040517f08c379a000000000000000000000000000000000000000000000000000000000815260040180806020018281038252603681526020018061248c6036913960400191505060405180910390fd5b600c811115610b68576040517f08c379a00000000000000000000000000000000000000000000000000000000081526004018080602001828103825260208152602001807f4d6178696d756d20696e74657265737420706572696f6473206172652031322e81525060200191505060405180910390fd5b60008111610bc1576040517f08c379a00000000000000000000000000000000000000000000000000000000081526004018080602001828103825260248152602001806125b96024913960400191505060405180910390fd5b60008690503073ffffffffffffffffffffffffffffffffffffffff168173ffffffffffffffffffffffffffffffffffffffff1663081812fc886040518263ffffffff1660e01b81526004018082815260200191505060206040518083038186803b158015610c2e57600080fd5b505afa158015610c42573d6000803e3d6000fd5b505050506040513d6020811015610c5857600080fd5b810190808051906020019092919050505073ffffffffffffffffffffffffffffffffffffffff1614610cd5576040517f08c379a000000000000000000000000000000000000000000000000000000000815260040180806020018281038252602181526020018061260d6021913960400191505060405180910390fd5b60006002600060015481526020019081526020016000209050600154816000018190555060008160010160006101000a81548173ffffffffffffffffffffffffffffffffffffffff021916908373ffffffffffffffffffffffffffffffffffffffff160217905550338160020160006101000a81548173ffffffffffffffffffffffffffffffffffffffff021916908373ffffffffffffffffffffffffffffffffffffffff160217905550878160030160006101000a81548173ffffffffffffffffffffffffffffffffffffffff021916908373ffffffffffffffffffffffffffffffffffffffff160217905550868160040181905550858160050181905550848160060181905550838160070181905550828160080181905550600081600a0160006101000a81548160ff02191690836004811115610e1157fe5b0217905550610e236001546001612047565b6001819055508173ffffffffffffffffffffffffffffffffffffffff166342842e0e33308a6040518463ffffffff1660e01b8152600401808473ffffffffffffffffffffffffffffffffffffffff1681526020018373ffffffffffffffffffffffffffffffffffffffff1681526020018281526020019350505050600060405180830381600087803b158015610eb857600080fd5b505af1158015610ecc573d6000803e3d6000fd5b505050507f01163e919b1fd75968a143d56990c801b68ce928c77db2aaa2ee00c1561b376860405160405180910390a15050505050505050565b600063150b7a0260e01b9050949350505050565b737cf5c58c071a94972d26404d31901696109700e181565b600060019054906101000a900473ffffffffffffffffffffffffffffffffffffffff1681565b806001548110610fd0576040517f08c379a00000000000000000000000000000000000000000000000000000000081526004018080602001828103825260138152602001807f4c6f616e20494420697320696e76616c69642e0000000000000000000000000081525060200191505060405180910390fd5b60006004811115610fdd57fe5b60026000848152602001908152602001600020600a0160009054906101000a900460ff16600481111561100c57fe5b14611062576040517f08c379a000000000000000000000000000000000000000000000000000000000815260040180806020018281038252602c815260200180612429602c913960400191505060405180910390fd5b6002600083815260200190815260200160002060020160009054906101000a900473ffffffffffffffffffffffffffffffffffffffff1673ffffffffffffffffffffffffffffffffffffffff163373ffffffffffffffffffffffffffffffffffffffff16146110d057600080fd5b6002806000848152602001908152602001600020600a0160006101000a81548160ff0219169083600481111561110257fe5b021790555060006002600084815260200190815260200160002060030160009054906101000a900473ffffffffffffffffffffffffffffffffffffffff1690508073ffffffffffffffffffffffffffffffffffffffff1663095ea7b33360026000878152602001908152602001600020600401546040518363ffffffff1660e01b8152600401808373ffffffffffffffffffffffffffffffffffffffff16815260200182815260200192505050600060405180830381600087803b1580156111c957600080fd5b505af11580156111dd573d6000803e3d6000fd5b505050508073ffffffffffffffffffffffffffffffffffffffff166323b872dd303360026000888152602001908152602001600020600401546040518463ffffffff1660e01b8152600401808473ffffffffffffffffffffffffffffffffffffffff1681526020018373ffffffffffffffffffffffffffffffffffffffff1681526020018281526020019350505050600060405180830381600087803b15801561128657600080fd5b505af115801561129a573d6000803e3d6000fd5b505050507f01163e919b1fd75968a143d56990c801b68ce928c77db2aaa2ee00c1561b376860405160405180910390a1505050565b60008060009054906101000a900460ff16905090565b60026020528060005260406000206000915090508060000154908060010160009054906101000a900473ffffffffffffffffffffffffffffffffffffffff16908060020160009054906101000a900473ffffffffffffffffffffffffffffffffffffffff16908060030160009054906101000a900473ffffffffffffffffffffffffffffffffffffffff169080600401549080600501549080600601549080600701549080600801549080600901549080600a0160009054906101000a900460ff1690508b565b806001548110611424576040517f08c379a00000000000000000000000000000000000000000000000000000000081526004018080602001828103825260138152602001807f4c6f616e20494420697320696e76616c69642e0000000000000000000000000081525060200191505060405180910390fd5b6001600481111561143157fe5b60026000848152602001908152602001600020600a0160009054906101000a900460ff16600481111561146057fe5b146114b6576040517f08c379a00000000000000000000000000000000000000000000000000000000081526004018080602001828103825260218152602001806124086021913960400191505060405180910390fd5b6002600083815260200190815260200160002060010160009054906101000a900473ffffffffffffffffffffffffffffffffffffffff1673ffffffffffffffffffffffffffffffffffffffff163373ffffffffffffffffffffffffffffffffffffffff1614801561153d575060026000838152602001908152602001600020600901544210155b806115a957506002600083815260200190815260200160002060020160009054906101000a900473ffffffffffffffffffffffffffffffffffffffff1673ffffffffffffffffffffffffffffffffffffffff163373ffffffffffffffffffffffffffffffffffffffff16145b61161b576040517f08c379a00000000000000000000000000000000000000000000000000000000081526004018080602001828103825260138152602001807f556e61626c6520746f20656e64206c6f616e2e0000000000000000000000000081525060200191505060405180910390fd5b6002600083815260200190815260200160002060020160009054906101000a900473ffffffffffffffffffffffffffffffffffffffff1673ffffffffffffffffffffffffffffffffffffffff163373ffffffffffffffffffffffffffffffffffffffff1614156117c45760026000838152602001908152602001600020600501543410156116f4576040517f08c379a000000000000000000000000000000000000000000000000000000000815260040180806020018281038252602e81526020018061258b602e913960400191505060405180910390fd5b600360026000848152602001908152602001600020600a0160006101000a81548160ff0219169083600481111561172757fe5b02179055506002600083815260200190815260200160002060010160009054906101000a900473ffffffffffffffffffffffffffffffffffffffff1673ffffffffffffffffffffffffffffffffffffffff166108fc60026000858152602001908152602001600020600501549081150290604051600060405180830381858888f193505050501580156117be573d6000803e3d6000fd5b506117fd565b600460026000848152602001908152602001600020600a0160006101000a81548160ff021916908360048111156117f757fe5b02179055505b60006002600084815260200190815260200160002060030160009054906101000a900473ffffffffffffffffffffffffffffffffffffffff1690508073ffffffffffffffffffffffffffffffffffffffff1663095ea7b33360026000878152602001908152602001600020600401546040518363ffffffff1660e01b8152600401808373ffffffffffffffffffffffffffffffffffffffff16815260200182815260200192505050600060405180830381600087803b1580156118bf57600080fd5b505af11580156118d3573d6000803e3d6000fd5b505050508073ffffffffffffffffffffffffffffffffffffffff166323b872dd303360026000888152602001908152602001600020600401546040518463ffffffff1660e01b8152600401808473ffffffffffffffffffffffffffffffffffffffff1681526020018373ffffffffffffffffffffffffffffffffffffffff1681526020018281526020019350505050600060405180830381600087803b15801561197c57600080fd5b505af1158015611990573d6000803e3d6000fd5b505050507f01163e919b1fd75968a143d56990c801b68ce928c77db2aaa2ee00c1561b376860405160405180910390a1505050565b60015481565b600060019054906101000a900473ffffffffffffffffffffffffffffffffffffffff1673ffffffffffffffffffffffffffffffffffffffff163373ffffffffffffffffffffffffffffffffffffffff1614611a71576040517f08c379a00000000000000000000000000000000000000000000000000000000081526004018080602001828103825260238152602001806123bc6023913960400191505060405180910390fd5b611a796120cf565b565b806001548110611af3576040517f08c379a00000000000000000000000000000000000000000000000000000000081526004018080602001828103825260138152602001807f4c6f616e20494420697320696e76616c69642e0000000000000000000000000081525060200191505060405180910390fd5b611afb6112cf565b15611b6e576040517f08c379a00000000000000000000000000000000000000000000000000000000081526004018080602001828103825260108152602001807f5061757361626c653a207061757365640000000000000000000000000000000081525060200191505060405180910390fd5b60006004811115611b7b57fe5b60026000848152602001908152602001600020600a0160009054906101000a900460ff166004811115611baa57fe5b14611c1d576040517f08c379a000000000000000000000000000000000000000000000000000000000815260040180806020018281038252601f8152602001807f537461747573206973206e6f742050454e44494e4720666f72206c6f616e2e0081525060200191505060405180910390fd5b3373ffffffffffffffffffffffffffffffffffffffff166002600084815260200190815260200160002060020160009054906101000a900473ffffffffffffffffffffffffffffffffffffffff1673ffffffffffffffffffffffffffffffffffffffff161415611cd8576040517f08c379a00000000000000000000000000000000000000000000000000000000081526004018080602001828103825260378152602001806124556037913960400191505060405180910390fd5b60006002600084815260200190815260200160002060060154600260008581526020019081526020016000206005015403905080341015611d64576040517f08c379a00000000000000000000000000000000000000000000000000000000081526004018080602001828103825260358152602001806125566035913960400191505060405180910390fd5b60016002600085815260200190815260200160002060080154036002600085815260200190815260200160002060080181905550336002600085815260200190815260200160002060010160006101000a81548173ffffffffffffffffffffffffffffffffffffffff021916908373ffffffffffffffffffffffffffffffffffffffff160217905550600160026000858152602001908152602001600020600a0160006101000a81548160ff02191690836004811115611e2057fe5b0217905550611e45426002600086815260200190815260200160002060070154612047565b60026000858152602001908152602001600020600901819055506000611e896103e8611e7b6019856121ba90919063ffffffff16565b61224090919063ffffffff16565b9050737cf5c58c071a94972d26404d31901696109700e173ffffffffffffffffffffffffffffffffffffffff166108fc829081150290604051600060405180830381858888f19350505050158015611ee5573d6000803e3d6000fd5b506002600085815260200190815260200160002060020160009054906101000a900473ffffffffffffffffffffffffffffffffffffffff1673ffffffffffffffffffffffffffffffffffffffff166108fc8284039081150290604051600060405180830381858888f19350505050158015611f64573d6000803e3d6000fd5b507f01163e919b1fd75968a143d56990c801b68ce928c77db2aaa2ee00c1561b376860405160405180910390a150505050565b600060019054906101000a900473ffffffffffffffffffffffffffffffffffffffff1673ffffffffffffffffffffffffffffffffffffffff163373ffffffffffffffffffffffffffffffffffffffff161461203d576040517f08c379a00000000000000000000000000000000000000000000000000000000081526004018080602001828103825260238152602001806123bc6023913960400191505060405180910390fd5b6120456122c9565b565b6000808284019050838110156120c5576040517f08c379a000000000000000000000000000000000000000000000000000000000815260040180806020018281038252601b8152602001807f536166654d6174683a206164646974696f6e206f766572666c6f77000000000081525060200191505060405180910390fd5b8091505092915050565b6120d76112cf565b1561214a576040517f08c379a00000000000000000000000000000000000000000000000000000000081526004018080602001828103825260108152602001807f5061757361626c653a207061757365640000000000000000000000000000000081525060200191505060405180910390fd5b60016000806101000a81548160ff0219169083151502179055507f62e78cea01bee320cd4e420270b5ea74000d11b0c9f74754ebdbfc544b05a25861218d6123b3565b604051808273ffffffffffffffffffffffffffffffffffffffff16815260200191505060405180910390a1565b6000808314156121cd576000905061223a565b60008284029050828482816121de57fe5b0414612235576040517f08c379a00000000000000000000000000000000000000000000000000000000081526004018080602001828103825260218152602001806124c26021913960400191505060405180910390fd5b809150505b92915050565b60008082116122b7576040517f08c379a000000000000000000000000000000000000000000000000000000000815260040180806020018281038252601a8152602001807f536166654d6174683a206469766973696f6e206279207a65726f00000000000081525060200191505060405180910390fd5b8183816122c057fe5b04905092915050565b6122d16112cf565b612343576040517f08c379a00000000000000000000000000000000000000000000000000000000081526004018080602001828103825260148152602001807f5061757361626c653a206e6f742070617573656400000000000000000000000081525060200191505060405180910390fd5b60008060006101000a81548160ff0219169083151502179055507f5db9ee0a495bf2e6ff9c91a7834c1ba4fdd244a5e8aa4e537bd38aeae4b073aa6123866123b3565b604051808273ffffffffffffffffffffffffffffffffffffffff16815260200191505060405180910390a1565b60003390509056fe4f6e6c79206c656173696e67206d616e616765722063616e2063616c6c20746869732e4f6e6c792074686520626f72726f7765722063616e2063616c6c20746869732066756e6374696f6e2e537461747573206973206e6f742041435449564520746f20656e64206c6f616e2e537461747573206973206e6f742050454e44494e4720746f2063616e63656c206c6f616e2072657175657374496e76616c6964206f7065726174696f6e2e20596f752063616e6e6f7420756e646572777269746520796f7572206f776e206c6f616e2e496e746572657374206d757374206265206c6f776572207468616e2032202a207072696e636970616c206f6620746865206c6f616e2e536166654d6174683a206d756c7469706c69636174696f6e206f766572666c6f77546865206d6178696d756d206e756d626572206f6620657874656e73696f6e7320746f20746865206c6f616e20686173206265656e20726561636865642e4e6f7420656e6f7567682045746865722073656e7420746f207468652066756e6374696f6e20746f20657874656e64206c6f616e2e4e6f7420656e6f7567682045746865722073656e7420746f2066756e6374696f6e20746f20756e6465727772697465206c6f616e2e546865207072696e636970616c20616d6f756e74206f6620746865206c6f616e20776173206e6f742073656e742e4d6178696d756d20696e74657265737420706572696f642063616e6e6f7420626520302e412073696e676c6520706572696f642063616e20686176652061206d6178696d756d206f66206f6e65206d6f6e74682e5472616e736665722068617320746f20626520617070726f766564206669727374a264697066735822122086ffd231754e8e3912694e247666ced7947c3a5b4d26eb333866c7bd99d0b0bb64736f6c634300060c0033",
  "linkReferences": {},
  "deployedLinkReferences": {}
}