{
  "address": "0x43bAe266076d54Bfa87eCf5E353Ba1f5fe79c063",
  "abi": [
    {
      "inputs": [],
      "stateMutability": "nonpayable",
      "type": "constructor"
    },
    {
      "anonymous": false,
      "inputs": [],
      "name": "LoansUpdated",
      "type": "event"
    },
    {
      "anonymous": false,
      "inputs": [
        {
          "indexed": false,
          "internalType": "address",
          "name": "account",
          "type": "address"
        }
      ],
      "name": "Paused",
      "type": "event"
    },
    {
      "anonymous": false,
      "inputs": [
        {
          "indexed": false,
          "internalType": "address",
          "name": "account",
          "type": "address"
        }
      ],
      "name": "Unpaused",
      "type": "event"
    },
    {
      "inputs": [
        {
          "internalType": "uint256",
          "name": "loanID",
          "type": "uint256"
        }
      ],
      "name": "acceptLoanRequest",
      "outputs": [],
      "stateMutability": "payable",
      "type": "function"
    },
    {
      "inputs": [
        {
          "internalType": "uint256",
          "name": "",
          "type": "uint256"
        }
      ],
      "name": "allLoanRequests",
      "outputs": [
        {
          "internalType": "uint256",
          "name": "loanID",
          "type": "uint256"
        },
        {
          "internalType": "address payable",
          "name": "lender",
          "type": "address"
        },
        {
          "internalType": "address payable",
          "name": "borrower",
          "type": "address"
        },
        {
          "internalType": "address",
          "name": "smartContractAddressOfNFT",
          "type": "address"
        },
        {
          "internalType": "uint256",
          "name": "tokenIdNFT",
          "type": "uint256"
        },
        {
          "internalType": "uint256",
          "name": "loanAmount",
          "type": "uint256"
        },
        {
          "internalType": "uint256",
          "name": "interestAmount",
          "type": "uint256"
        },
        {
          "internalType": "uint256",
          "name": "singlePeriodTime",
          "type": "uint256"
        },
        {
          "internalType": "uint256",
          "name": "maximumInterestPeriods",
          "type": "uint256"
        },
        {
          "internalType": "uint256",
          "name": "endLoanTimeStamp",
          "type": "uint256"
        },
        {
          "internalType": "enum LoansNFT.Status",
          "name": "status",
          "type": "uint8"
        }
      ],
      "stateMutability": "view",
      "type": "function"
    },
    {
      "inputs": [
        {
          "internalType": "uint256",
          "name": "loanID",
          "type": "uint256"
        }
      ],
      "name": "cancelLoanRequest",
      "outputs": [],
      "stateMutability": "nonpayable",
      "type": "function"
    },
    {
      "inputs": [
        {
          "internalType": "address",
          "name": "smartContractAddressOfNFT",
          "type": "address"
        },
        {
          "internalType": "uint256",
          "name": "tokenIdNFT",
          "type": "uint256"
        },
        {
          "internalType": "uint256",
          "name": "loanAmount",
          "type": "uint256"
        },
        {
          "internalType": "uint256",
          "name": "interestAmount",
          "type": "uint256"
        },
        {
          "internalType": "uint256",
          "name": "singlePeriodTime",
          "type": "uint256"
        },
        {
          "internalType": "uint256",
          "name": "maximumInterestPeriods",
          "type": "uint256"
        }
      ],
      "name": "createLoanRequest",
      "outputs": [],
      "stateMutability": "nonpayable",
      "type": "function"
    },
    {
      "inputs": [
        {
          "internalType": "uint256",
          "name": "loanID",
          "type": "uint256"
        }
      ],
      "name": "endLoanRequest",
      "outputs": [],
      "stateMutability": "payable",
      "type": "function"
    },
    {
      "inputs": [
        {
          "internalType": "uint256",
          "name": "loanID",
          "type": "uint256"
        }
      ],
      "name": "extendLoanRequest",
      "outputs": [],
      "stateMutability": "payable",
      "type": "function"
    },
    {
      "inputs": [],
      "name": "manager",
      "outputs": [
        {
          "internalType": "address",
          "name": "",
          "type": "address"
        }
      ],
      "stateMutability": "view",
      "type": "function"
    },
    {
      "inputs": [
        {
          "internalType": "address",
          "name": "operator",
          "type": "address"
        },
        {
          "internalType": "address",
          "name": "from",
          "type": "address"
        },
        {
          "internalType": "uint256",
          "name": "tokenId",
          "type": "uint256"
        },
        {
          "internalType": "bytes",
          "name": "data",
          "type": "bytes"
        }
      ],
      "name": "onERC721Received",
      "outputs": [
        {
          "internalType": "bytes4",
          "name": "",
          "type": "bytes4"
        }
      ],
      "stateMutability": "nonpayable",
      "type": "function"
    },
    {
      "inputs": [],
      "name": "pauseLoans",
      "outputs": [],
      "stateMutability": "nonpayable",
      "type": "function"
    },
    {
      "inputs": [],
      "name": "paused",
      "outputs": [
        {
          "internalType": "bool",
          "name": "",
          "type": "bool"
        }
      ],
      "stateMutability": "view",
      "type": "function"
    },
    {
      "inputs": [],
      "name": "totalLoanRequests",
      "outputs": [
        {
          "internalType": "uint256",
          "name": "",
          "type": "uint256"
        }
      ],
      "stateMutability": "view",
      "type": "function"
    },
    {
      "inputs": [],
      "name": "unPauseLoans",
      "outputs": [],
      "stateMutability": "nonpayable",
      "type": "function"
    }
  ],
  "transactionHash": "0xe430c06a49cd07fcb92ffece5caa7ddb8ac4e56c0fa350a8879e1ecb061f034b",
  "args": [],
  "solcInputHash": "183f2d2abf6473f2eb346bd303701c99",
  "bytecode": "0x608060405234801561001057600080fd5b5060008060006101000a81548160ff02191690831515021790555033600060016101000a81548173ffffffffffffffffffffffffffffffffffffffff021916908373ffffffffffffffffffffffffffffffffffffffff1602179055506000600181905550612430806100836000396000f3fe6080604052600436106100a75760003560e01c8063634609c211610064578063634609c21461034b5780637331978f1461042d578063765d94911461045b578063908ef64614610486578063c16f547e1461049d578063f9e7d3d1146104cb576100a7565b80630118a77a146100ac578063012751c9146100da578063150b7a021461015d578063481c6a75146102a25780635a680367146102e35780635c975abb1461031e575b600080fd5b6100d8600480360360208110156100c257600080fd5b81019080803590602001909291905050506104e2565b005b3480156100e657600080fd5b5061015b600480360360c08110156100fd57600080fd5b81019080803573ffffffffffffffffffffffffffffffffffffffff1690602001909291908035906020019092919080359060200190929190803590602001909291908035906020019092919080359060200190929190505050610963565b005b34801561016957600080fd5b5061026d6004803603608081101561018057600080fd5b81019080803573ffffffffffffffffffffffffffffffffffffffff169060200190929190803573ffffffffffffffffffffffffffffffffffffffff16906020019092919080359060200190929190803590602001906401000000008111156101e757600080fd5b8201836020820111156101f957600080fd5b8035906020019184600183028401116401000000008311171561021b57600080fd5b91908080601f016020809104026020016040519081016040528093929190818152602001838380828437600081840152601f19601f820116905080830192505050505050509192919290505050610ea5565b60405180827bffffffffffffffffffffffffffffffffffffffffffffffffffffffff1916815260200191505060405180910390f35b3480156102ae57600080fd5b506102b7610eb9565b604051808273ffffffffffffffffffffffffffffffffffffffff16815260200191505060405180910390f35b3480156102ef57600080fd5b5061031c6004803603602081101561030657600080fd5b8101908080359060200190929190505050610edf565b005b34801561032a57600080fd5b50610333611256565b60405180821515815260200191505060405180910390f35b34801561035757600080fd5b506103846004803603602081101561036e57600080fd5b810190808035906020019092919050505061126c565b604051808c81526020018b73ffffffffffffffffffffffffffffffffffffffff1681526020018a73ffffffffffffffffffffffffffffffffffffffff1681526020018973ffffffffffffffffffffffffffffffffffffffff16815260200188815260200187815260200186815260200185815260200184815260200183815260200182600481111561041257fe5b81526020019b50505050505050505050505060405180910390f35b6104596004803603602081101561044357600080fd5b8101908080359060200190929190505050611333565b005b34801561046757600080fd5b5061047061194c565b6040518082815260200191505060405180910390f35b34801561049257600080fd5b5061049b611952565b005b6104c9600480360360208110156104b357600080fd5b8101908080359060200190929190505050611a02565b005b3480156104d757600080fd5b506104e0611e94565b005b80600154811061055a576040517f08c379a00000000000000000000000000000000000000000000000000000000081526004018080602001828103825260138152602001807f4c6f616e20494420697320696e76616c69642e0000000000000000000000000081525060200191505060405180910390fd5b610562611256565b156105d5576040517f08c379a00000000000000000000000000000000000000000000000000000000081526004018080602001828103825260108152602001807f5061757361626c653a207061757365640000000000000000000000000000000081525060200191505060405180910390fd5b600160048111156105e257fe5b60026000848152602001908152602001600020600a0160009054906101000a900460ff16600481111561061157fe5b14610684576040517f08c379a000000000000000000000000000000000000000000000000000000000815260040180806020018281038252601d8152602001807f537461747573206973206e6f742041435449564520666f72206c6f616e00000081525060200191505060405180910390fd5b3373ffffffffffffffffffffffffffffffffffffffff166002600084815260200190815260200160002060020160009054906101000a900473ffffffffffffffffffffffffffffffffffffffff1673ffffffffffffffffffffffffffffffffffffffff161461073e576040517f08c379a00000000000000000000000000000000000000000000000000000000081526004018080602001828103825260298152602001806121cd6029913960400191505060405180910390fd5b60006002600084815260200190815260200160002060080154116107ad576040517f08c379a000000000000000000000000000000000000000000000000000000000815260040180806020018281038252603e81526020018061227a603e913960400191505060405180910390fd5b600260008381526020019081526020016000206006015434101561081c576040517f08c379a00000000000000000000000000000000000000000000000000000000081526004018080602001828103825260358152602001806122ee6035913960400191505060405180910390fd5b6001600260008481526020019081526020016000206008015403600260008481526020019081526020016000206008018190555061088660026000848152602001908152602001600020600901546002600085815260200190815260200160002060070154611f44565b60026000848152602001908152602001600020600901819055506002600083815260200190815260200160002060010160009054906101000a900473ffffffffffffffffffffffffffffffffffffffff1673ffffffffffffffffffffffffffffffffffffffff166108fc60026000858152602001908152602001600020600601549081150290604051600060405180830381858888f19350505050158015610932573d6000803e3d6000fd5b507f01163e919b1fd75968a143d56990c801b68ce928c77db2aaa2ee00c1561b376860405160405180910390a15050565b61096b611256565b156109de576040517f08c379a00000000000000000000000000000000000000000000000000000000081526004018080602001828103825260108152602001807f5061757361626c653a207061757365640000000000000000000000000000000081525060200191505060405180910390fd5b6228de808210610a39576040517f08c379a00000000000000000000000000000000000000000000000000000000081526004018080602001828103825260308152602001806123aa6030913960400191505060405180910390fd5b838310610a91576040517f08c379a00000000000000000000000000000000000000000000000000000000081526004018080602001828103825260368152602001806122b86036913960400191505060405180910390fd5b600c8110610b07576040517f08c379a00000000000000000000000000000000000000000000000000000000081526004018080602001828103825260208152602001807f4d6178696d756d20696e74657265737420706572696f6473206172652031322e81525060200191505060405180910390fd5b60008111610b60576040517f08c379a00000000000000000000000000000000000000000000000000000000081526004018080602001828103825260248152602001806123866024913960400191505060405180910390fd5b60008690503073ffffffffffffffffffffffffffffffffffffffff168173ffffffffffffffffffffffffffffffffffffffff1663081812fc886040518263ffffffff1660e01b81526004018082815260200191505060206040518083038186803b158015610bcd57600080fd5b505afa158015610be1573d6000803e3d6000fd5b505050506040513d6020811015610bf757600080fd5b810190808051906020019092919050505073ffffffffffffffffffffffffffffffffffffffff1614610c74576040517f08c379a00000000000000000000000000000000000000000000000000000000081526004018080602001828103825260218152602001806123da6021913960400191505060405180910390fd5b60006002600060015481526020019081526020016000209050600154816000018190555060008160010160006101000a81548173ffffffffffffffffffffffffffffffffffffffff021916908373ffffffffffffffffffffffffffffffffffffffff160217905550338160020160006101000a81548173ffffffffffffffffffffffffffffffffffffffff021916908373ffffffffffffffffffffffffffffffffffffffff160217905550878160030160006101000a81548173ffffffffffffffffffffffffffffffffffffffff021916908373ffffffffffffffffffffffffffffffffffffffff160217905550868160040181905550858160050181905550848160060181905550838160070181905550828160080181905550600081600a0160006101000a81548160ff02191690836004811115610db057fe5b0217905550610dc26001546001611f44565b6001819055508173ffffffffffffffffffffffffffffffffffffffff166342842e0e33308a6040518463ffffffff1660e01b8152600401808473ffffffffffffffffffffffffffffffffffffffff1681526020018373ffffffffffffffffffffffffffffffffffffffff1681526020018281526020019350505050600060405180830381600087803b158015610e5757600080fd5b505af1158015610e6b573d6000803e3d6000fd5b505050507f01163e919b1fd75968a143d56990c801b68ce928c77db2aaa2ee00c1561b376860405160405180910390a15050505050505050565b600063150b7a0260e01b9050949350505050565b600060019054906101000a900473ffffffffffffffffffffffffffffffffffffffff1681565b806001548110610f57576040517f08c379a00000000000000000000000000000000000000000000000000000000081526004018080602001828103825260138152602001807f4c6f616e20494420697320696e76616c69642e0000000000000000000000000081525060200191505060405180910390fd5b60006004811115610f6457fe5b60026000848152602001908152602001600020600a0160009054906101000a900460ff166004811115610f9357fe5b14610fe9576040517f08c379a000000000000000000000000000000000000000000000000000000000815260040180806020018281038252602c815260200180612217602c913960400191505060405180910390fd5b6002600083815260200190815260200160002060020160009054906101000a900473ffffffffffffffffffffffffffffffffffffffff1673ffffffffffffffffffffffffffffffffffffffff163373ffffffffffffffffffffffffffffffffffffffff161461105757600080fd5b6002806000848152602001908152602001600020600a0160006101000a81548160ff0219169083600481111561108957fe5b021790555060006002600084815260200190815260200160002060030160009054906101000a900473ffffffffffffffffffffffffffffffffffffffff1690508073ffffffffffffffffffffffffffffffffffffffff1663095ea7b33360026000878152602001908152602001600020600401546040518363ffffffff1660e01b8152600401808373ffffffffffffffffffffffffffffffffffffffff16815260200182815260200192505050600060405180830381600087803b15801561115057600080fd5b505af1158015611164573d6000803e3d6000fd5b505050508073ffffffffffffffffffffffffffffffffffffffff166323b872dd303360026000888152602001908152602001600020600401546040518463ffffffff1660e01b8152600401808473ffffffffffffffffffffffffffffffffffffffff1681526020018373ffffffffffffffffffffffffffffffffffffffff1681526020018281526020019350505050600060405180830381600087803b15801561120d57600080fd5b505af1158015611221573d6000803e3d6000fd5b505050507f01163e919b1fd75968a143d56990c801b68ce928c77db2aaa2ee00c1561b376860405160405180910390a1505050565b60008060009054906101000a900460ff16905090565b60026020528060005260406000206000915090508060000154908060010160009054906101000a900473ffffffffffffffffffffffffffffffffffffffff16908060020160009054906101000a900473ffffffffffffffffffffffffffffffffffffffff16908060030160009054906101000a900473ffffffffffffffffffffffffffffffffffffffff169080600401549080600501549080600601549080600701549080600801549080600901549080600a0160009054906101000a900460ff1690508b565b8060015481106113ab576040517f08c379a00000000000000000000000000000000000000000000000000000000081526004018080602001828103825260138152602001807f4c6f616e20494420697320696e76616c69642e0000000000000000000000000081525060200191505060405180910390fd5b600160048111156113b857fe5b60026000848152602001908152602001600020600a0160009054906101000a900460ff1660048111156113e757fe5b1461143d576040517f08c379a00000000000000000000000000000000000000000000000000000000081526004018080602001828103825260218152602001806121f66021913960400191505060405180910390fd5b6002600083815260200190815260200160002060010160009054906101000a900473ffffffffffffffffffffffffffffffffffffffff1673ffffffffffffffffffffffffffffffffffffffff163373ffffffffffffffffffffffffffffffffffffffff161480156114c4575060026000838152602001908152602001600020600901544210155b8061153057506002600083815260200190815260200160002060020160009054906101000a900473ffffffffffffffffffffffffffffffffffffffff1673ffffffffffffffffffffffffffffffffffffffff163373ffffffffffffffffffffffffffffffffffffffff16145b6115a2576040517f08c379a00000000000000000000000000000000000000000000000000000000081526004018080602001828103825260138152602001807f556e61626c6520746f20656e64206c6f616e2e0000000000000000000000000081525060200191505060405180910390fd5b6002600083815260200190815260200160002060020160009054906101000a900473ffffffffffffffffffffffffffffffffffffffff1673ffffffffffffffffffffffffffffffffffffffff163373ffffffffffffffffffffffffffffffffffffffff16141561174b57600260008381526020019081526020016000206005015434101561167b576040517f08c379a000000000000000000000000000000000000000000000000000000000815260040180806020018281038252602e815260200180612358602e913960400191505060405180910390fd5b600360026000848152602001908152602001600020600a0160006101000a81548160ff021916908360048111156116ae57fe5b02179055506002600083815260200190815260200160002060010160009054906101000a900473ffffffffffffffffffffffffffffffffffffffff1673ffffffffffffffffffffffffffffffffffffffff166108fc60026000858152602001908152602001600020600501549081150290604051600060405180830381858888f19350505050158015611745573d6000803e3d6000fd5b50611784565b600460026000848152602001908152602001600020600a0160006101000a81548160ff0219169083600481111561177e57fe5b02179055505b60006002600084815260200190815260200160002060030160009054906101000a900473ffffffffffffffffffffffffffffffffffffffff1690508073ffffffffffffffffffffffffffffffffffffffff1663095ea7b33360026000878152602001908152602001600020600401546040518363ffffffff1660e01b8152600401808373ffffffffffffffffffffffffffffffffffffffff16815260200182815260200192505050600060405180830381600087803b15801561184657600080fd5b505af115801561185a573d6000803e3d6000fd5b505050508073ffffffffffffffffffffffffffffffffffffffff166323b872dd303360026000888152602001908152602001600020600401546040518463ffffffff1660e01b8152600401808473ffffffffffffffffffffffffffffffffffffffff1681526020018373ffffffffffffffffffffffffffffffffffffffff1681526020018281526020019350505050600060405180830381600087803b15801561190357600080fd5b505af1158015611917573d6000803e3d6000fd5b505050507f01163e919b1fd75968a143d56990c801b68ce928c77db2aaa2ee00c1561b376860405160405180910390a1505050565b60015481565b600060019054906101000a900473ffffffffffffffffffffffffffffffffffffffff1673ffffffffffffffffffffffffffffffffffffffff163373ffffffffffffffffffffffffffffffffffffffff16146119f8576040517f08c379a00000000000000000000000000000000000000000000000000000000081526004018080602001828103825260238152602001806121aa6023913960400191505060405180910390fd5b611a00611fcc565b565b806001548110611a7a576040517f08c379a00000000000000000000000000000000000000000000000000000000081526004018080602001828103825260138152602001807f4c6f616e20494420697320696e76616c69642e0000000000000000000000000081525060200191505060405180910390fd5b611a82611256565b15611af5576040517f08c379a00000000000000000000000000000000000000000000000000000000081526004018080602001828103825260108152602001807f5061757361626c653a207061757365640000000000000000000000000000000081525060200191505060405180910390fd5b60006004811115611b0257fe5b60026000848152602001908152602001600020600a0160009054906101000a900460ff166004811115611b3157fe5b14611ba4576040517f08c379a000000000000000000000000000000000000000000000000000000000815260040180806020018281038252601f8152602001807f537461747573206973206e6f742050454e44494e4720666f72206c6f616e2e0081525060200191505060405180910390fd5b3373ffffffffffffffffffffffffffffffffffffffff166002600084815260200190815260200160002060020160009054906101000a900473ffffffffffffffffffffffffffffffffffffffff1673ffffffffffffffffffffffffffffffffffffffff161415611c5f576040517f08c379a00000000000000000000000000000000000000000000000000000000081526004018080602001828103825260378152602001806122436037913960400191505060405180910390fd5b60006002600084815260200190815260200160002060060154600260008581526020019081526020016000206005015403905080341015611ceb576040517f08c379a00000000000000000000000000000000000000000000000000000000081526004018080602001828103825260358152602001806123236035913960400191505060405180910390fd5b60016002600085815260200190815260200160002060080154036002600085815260200190815260200160002060080181905550336002600085815260200190815260200160002060010160006101000a81548173ffffffffffffffffffffffffffffffffffffffff021916908373ffffffffffffffffffffffffffffffffffffffff160217905550600160026000858152602001908152602001600020600a0160006101000a81548160ff02191690836004811115611da757fe5b0217905550611dcc426002600086815260200190815260200160002060070154611f44565b60026000858152602001908152602001600020600901819055506002600084815260200190815260200160002060020160009054906101000a900473ffffffffffffffffffffffffffffffffffffffff1673ffffffffffffffffffffffffffffffffffffffff166108fc829081150290604051600060405180830381858888f19350505050158015611e62573d6000803e3d6000fd5b507f01163e919b1fd75968a143d56990c801b68ce928c77db2aaa2ee00c1561b376860405160405180910390a1505050565b600060019054906101000a900473ffffffffffffffffffffffffffffffffffffffff1673ffffffffffffffffffffffffffffffffffffffff163373ffffffffffffffffffffffffffffffffffffffff1614611f3a576040517f08c379a00000000000000000000000000000000000000000000000000000000081526004018080602001828103825260238152602001806121aa6023913960400191505060405180910390fd5b611f426120b7565b565b600080828401905083811015611fc2576040517f08c379a000000000000000000000000000000000000000000000000000000000815260040180806020018281038252601b8152602001807f536166654d6174683a206164646974696f6e206f766572666c6f77000000000081525060200191505060405180910390fd5b8091505092915050565b611fd4611256565b15612047576040517f08c379a00000000000000000000000000000000000000000000000000000000081526004018080602001828103825260108152602001807f5061757361626c653a207061757365640000000000000000000000000000000081525060200191505060405180910390fd5b60016000806101000a81548160ff0219169083151502179055507f62e78cea01bee320cd4e420270b5ea74000d11b0c9f74754ebdbfc544b05a25861208a6121a1565b604051808273ffffffffffffffffffffffffffffffffffffffff16815260200191505060405180910390a1565b6120bf611256565b612131576040517f08c379a00000000000000000000000000000000000000000000000000000000081526004018080602001828103825260148152602001807f5061757361626c653a206e6f742070617573656400000000000000000000000081525060200191505060405180910390fd5b60008060006101000a81548160ff0219169083151502179055507f5db9ee0a495bf2e6ff9c91a7834c1ba4fdd244a5e8aa4e537bd38aeae4b073aa6121746121a1565b604051808273ffffffffffffffffffffffffffffffffffffffff16815260200191505060405180910390a1565b60003390509056fe4f6e6c79206c656173696e67206d616e616765722063616e2063616c6c20746869732e4f6e6c792074686520626f72726f7765722063616e2063616c6c20746869732066756e6374696f6e2e537461747573206973206e6f742041435449564520746f20656e64206c6f616e2e537461747573206973206e6f742050454e44494e4720746f2063616e63656c206c6f616e2072657175657374496e76616c6964206f7065726174696f6e2e20596f752063616e6e6f7420756e646572777269746520796f7572206f776e206c6f616e2e546865206d6178696d756d206e756d626572206f6620657874656e73696f6e7320746f20746865206c6f616e20686173206265656e20726561636865642e496e746572657374206d757374206265206c6f776572207468616e20746865207072696e636970616c206f6620746865206c6f616e2e4e6f7420656e6f7567682045746865722073656e7420746f207468652066756e6374696f6e20746f20657874656e64206c6f616e2e4e6f7420656e6f7567682045746865722073656e7420746f2066756e6374696f6e20746f20756e6465727772697465206c6f616e2e546865207072696e636970616c20616d6f756e74206f6620746865206c6f616e20776173206e6f742073656e742e4d6178696d756d20696e74657265737420706572696f642063616e6e6f7420626520302e412073696e676c6520706572696f642063616e20686176652061206d6178696d756d206f66206f6e65206d6f6e74682e5472616e736665722068617320746f20626520617070726f766564206669727374a26469706673582212204e312feccb729ab2fc307ab9910cb45fefe32121072f99f832ef41c16f22f4df64736f6c634300060c0033",
  "devdoc": {
    "kind": "dev",
    "methods": {
      "onERC721Received(address,address,uint256,bytes)": {
        "details": "Whenever an {IERC721} `tokenId` token is transferred to this contract via {IERC721-safeTransferFrom} by `operator` from `from`, this function is called. It must return its Solidity selector to confirm the token transfer. If any other value is returned or the interface is not implemented by the recipient, the transfer will be reverted. The selector can be obtained in Solidity with `IERC721.onERC721Received.selector`."
      },
      "paused()": {
        "details": "Returns true if the contract is paused, and false otherwise."
      }
    },
    "version": 1
  },
  "userdoc": {
    "kind": "user",
    "methods": {},
    "version": 1
  },
  "storageLayout": {
    "storage": [
      {
        "astId": 1232,
        "contract": "contracts/LoansNFT.sol:LoansNFT",
        "label": "_paused",
        "offset": 0,
        "slot": "0",
        "type": "t_bool"
      },
      {
        "astId": 1355,
        "contract": "contracts/LoansNFT.sol:LoansNFT",
        "label": "manager",
        "offset": 1,
        "slot": "0",
        "type": "t_address"
      },
      {
        "astId": 1357,
        "contract": "contracts/LoansNFT.sol:LoansNFT",
        "label": "totalLoanRequests",
        "offset": 0,
        "slot": "1",
        "type": "t_uint256"
      },
      {
        "astId": 1361,
        "contract": "contracts/LoansNFT.sol:LoansNFT",
        "label": "allLoanRequests",
        "offset": 0,
        "slot": "2",
        "type": "t_mapping(t_uint256,t_struct(LoanRequest)1353_storage)"
      }
    ],
    "types": {
      "t_address": {
        "encoding": "inplace",
        "label": "address",
        "numberOfBytes": "20"
      },
      "t_address_payable": {
        "encoding": "inplace",
        "label": "address payable",
        "numberOfBytes": "20"
      },
      "t_bool": {
        "encoding": "inplace",
        "label": "bool",
        "numberOfBytes": "1"
      },
      "t_enum(Status)1330": {
        "encoding": "inplace",
        "label": "enum LoansNFT.Status",
        "numberOfBytes": "1"
      },
      "t_mapping(t_uint256,t_struct(LoanRequest)1353_storage)": {
        "encoding": "mapping",
        "key": "t_uint256",
        "label": "mapping(uint256 => struct LoansNFT.LoanRequest)",
        "numberOfBytes": "32",
        "value": "t_struct(LoanRequest)1353_storage"
      },
      "t_struct(LoanRequest)1353_storage": {
        "encoding": "inplace",
        "label": "struct LoansNFT.LoanRequest",
        "members": [
          {
            "astId": 1332,
            "contract": "contracts/LoansNFT.sol:LoansNFT",
            "label": "loanID",
            "offset": 0,
            "slot": "0",
            "type": "t_uint256"
          },
          {
            "astId": 1334,
            "contract": "contracts/LoansNFT.sol:LoansNFT",
            "label": "lender",
            "offset": 0,
            "slot": "1",
            "type": "t_address_payable"
          },
          {
            "astId": 1336,
            "contract": "contracts/LoansNFT.sol:LoansNFT",
            "label": "borrower",
            "offset": 0,
            "slot": "2",
            "type": "t_address_payable"
          },
          {
            "astId": 1338,
            "contract": "contracts/LoansNFT.sol:LoansNFT",
            "label": "smartContractAddressOfNFT",
            "offset": 0,
            "slot": "3",
            "type": "t_address"
          },
          {
            "astId": 1340,
            "contract": "contracts/LoansNFT.sol:LoansNFT",
            "label": "tokenIdNFT",
            "offset": 0,
            "slot": "4",
            "type": "t_uint256"
          },
          {
            "astId": 1342,
            "contract": "contracts/LoansNFT.sol:LoansNFT",
            "label": "loanAmount",
            "offset": 0,
            "slot": "5",
            "type": "t_uint256"
          },
          {
            "astId": 1344,
            "contract": "contracts/LoansNFT.sol:LoansNFT",
            "label": "interestAmount",
            "offset": 0,
            "slot": "6",
            "type": "t_uint256"
          },
          {
            "astId": 1346,
            "contract": "contracts/LoansNFT.sol:LoansNFT",
            "label": "singlePeriodTime",
            "offset": 0,
            "slot": "7",
            "type": "t_uint256"
          },
          {
            "astId": 1348,
            "contract": "contracts/LoansNFT.sol:LoansNFT",
            "label": "maximumInterestPeriods",
            "offset": 0,
            "slot": "8",
            "type": "t_uint256"
          },
          {
            "astId": 1350,
            "contract": "contracts/LoansNFT.sol:LoansNFT",
            "label": "endLoanTimeStamp",
            "offset": 0,
            "slot": "9",
            "type": "t_uint256"
          },
          {
            "astId": 1352,
            "contract": "contracts/LoansNFT.sol:LoansNFT",
            "label": "status",
            "offset": 0,
            "slot": "10",
            "type": "t_enum(Status)1330"
          }
        ],
        "numberOfBytes": "352"
      },
      "t_uint256": {
        "encoding": "inplace",
        "label": "uint256",
        "numberOfBytes": "32"
      }
    }
  }
}